:10000000E1EF07F068961200046ED8CF05F0E0CF5C
:1000100006F00001E9CF0CF0EACF07F0E1CF08F0DD
:10002000E2CF09F0D9CF0AF0DACF0BF0F3CF12F01C
:10003000F4CF13F0FACF14F000C00EF001C00FF0AF
:1000400002C010F003C011F0A0AA2AEF00F0A1BA7C
:100050005FEF06F00EC000F00FC001F010C002F01C
:1000600011C003F00CC0E9FF07C0EAFF078E08C00B
:10007000E1FF09C0E2FF0AC0D9FF0BC0DAFF12C0DE
:10008000F3FF13C0F4FF14C0FAFF045006C0E0FFF2
:1000900005C0D8FF1000F76AA60FF66E000EF72213
:1000A0000900F55012000003FFFFFFFFFFFFFFFFF5
:1000B000FFFFFFFFFFFF07AE03D0F2CF0DF0F29E70
:1000C000F76AD80FF66E000EF7220900F55007AE5A
:1000D00002D00DBEF28E12004000030000000000AE
:1000E0000000000000000000000000000000000010
:1000F0000000000000000000F76A080FF66E010E15
:10010000F7220900F55012000600FF0901A10119AC
:100110000129081580257F7508950281021901299A
:1001200008750895029102C0F76A380FF66E010E45
:10013000F7220900F55012000000F76A4A0FF66E28
:10014000010EF7220900F55012002000F76A5C0F3B
:10015000F66E010EF7220900F5501200090229007F
:10016000010100803209040000020300000009219F
:10017000000100012220000705810303000A070592
:10018000010303000A00F76A960FF66E010EF722CC
:100190000900F55012000100F76AA80FF66E010E73
:1001A000F7220900F55012001200F76ABA0FF66E36
:1001B000010EF7220900F550120012011001000093
:1001C000004061042000000101020001F76ADC0F19
:1001D000F66E010EF7220900F5501200040309041F
:1001E00008034300430053001A0343004300530035
:1001F00020004800490044002000440065006D00D4
:100200006F006D92699468A402D06894FCD76BEF7C
:1002100006F0400E0401016F040E036F100E026F12
:10022000880E006F046B040E076F500E066F0001FE
:10023000120070A002D0EDDF7090689A72EF06F0A5
:100240006A6A689277EF06F050904FBE50804F9EDA
:100250004F50100803E2000E016E20D050A010D0C5
:10026000036A4F50F2CF51F0F29E15DF51BEF28E6D
:10027000FF0802E1000E01D0010E016E0FD00ED07A
:10028000036A4F50F2CF51F0F29E05DF51BEF28E5D
:10029000FF0802E1000E01D0010E016E1200036A98
:1002A0004E50700FE96E0F0E0320EA6EEF6A4EC0DB
:1002B0004FF0CADF015218E04E50080DF350506A5B
:1002C000E96E040E5024EA6EEF6A4E50080DF350AA
:1002D000506A4F6E040E4F26000E50224FC0E9FFA9
:1002E000040E5024EA6EEF6A1200010E4D6E4D505E
:1002F0000F0805E34DC04EF0D2DF4D2AF8D71200AB
:10030000256A246A436A43520AE1036A4350260F6E
:10031000E96E000E0320EA6EEF6A432AF4D7186AEA
:10032000010E196E176A12006A6A686A9F0E6B6E78
:100330003D0E696E6E6AD9DFE3DF160E706E68A639
:1003400002D060DEFCD76D9864DF030E1F6E7CEF79
:1003500006F0698468986D8281EF06F0689C86EFEC
:1003600006F048C020F0120020681200466A2450AF
:10037000251046E046503F0843E31A50FC0F2EE29A
:10038000040F0BEF02F023C003F02250F2CF48F02D
:10039000F29EDCDE48BEF28E476E20D023C003F012
:1003A0002250F2CF48F0F29EA7DE48BEF28E476E92
:1003B00015D023C003F02250F2CF48F0F29E06DFA2
:1003C00048BEF28E476E0AD023C003F02250F2CF0F
:1003D00048F0F29EEADE48BEF28E476E222AD8B47A
:1003E000232A2450D8B4250624064650462A036AF8
:1003F000500FE96E040E0320EA6E47C0EFFFB7D737
:100400002450251004E14650400801E0176A46C018
:1004100048F0A7DF1200E824F76AF736310FF66ECE
:10042000040EF7220A00F550FA6E0800F550F96E36
:1004300086039C03B203C803236A226A1A6A040172
:100440001351010A000109E0030A0DE0010A0FE05F
:10045000220A29E0030A4AE06FD0256A120E246EB0
:10046000030E1A6E6BD0256A290E246E67D0020E19
:100470001A6E036A040112511B0FE96E000E03206D
:10048000EA6E236AEFCF22F023C003F02250F2CFAE
:1004900046F0F29E00019ADE46BEF28E036A246E9A
:1004A00003C025F04BD0036A04011251F2CF46F08D
:1004B000F29E000171DE46BEF28E036A226E03C018
:1004C00023F0223C02D023520FE023C003F022503D
:1004D000F2CF46F0F29E3ADE46BEF28E036A246EFA
:1004E00003C025F02BD002D03FDF37D0036A0401D0
:1004F0001451F2CF46F0F29E000116DE46BEF28E97
:10050000036A226E03C023F0223C02D0235212E081
:10051000010E1A6E036A04011451F2CF46F0F29EE6
:1005200000010BDE46BEF28E036A246E03C025F086
:1005300005D002D019DF11D017DF0FD004011753F7
:1005400008E1255203E12450165D03E2256A16C432
:1005500024F0010E176E000109DF1200455204E17C
:10056000040E1F6EC2DED1D0050E1F6E040E486E43
:10057000900E476E010E466E46500F08D8A0C5D0AB
:1005800046C04EF08CDE496A036A4650F2CF4DF009
:10059000F29E81DD4DBEF28EFF0859E0040E496ED9
:1005A000D8904634036AF2CF4DF0F29E84DD090004
:1005B000F5CF03F04DBEF28E4A6E03C04BF04650AD
:1005C000080DF3504E6A4D6E010E4D24016E000E63
:1005D0004E20036E01C0E9FF040E0324EA6E4AC0F8
:1005E000EFFF4650080DF3504E6A4D6E020E4D243B
:1005F000016E000E4E20036E01C0E9FF040E0324BD
:10060000EA6E48C0ECFFED5247C0EFFFD890463489
:10061000036AF2CF4DF0F29E4EDD0900F5CF03F0F4
:100620004DBEF28E472603504822880E4C6E4BA0DA
:1006300001D04C804BA201D04C824650080DF350A3
:100640004E6AE96E040E4E24EA6E4CC0EFFF036A58
:100650004650F2CF4DF0F29E1EDD4DBEF28EFF08E9
:1006600039E049824650080DF3504E6A4D6E040E33
:100670004D26000E4E22020E4D24016E000E4E201D
:10068000036E01C0E9FF040E0324EA6E48C0ECFFCC
:10069000ED5247C0EFFFD8904634036AF2CF4DF0D9
:1006A000F29E09DD0900F5CF03F04DBEF28E47261C
:1006B000035048224650080DF3504E6A4D6E040E0A
:1006C0004D26000E4E224DC0E9FF040E4E24EA6E68
:1006D000400EEF6E4950060802E10E0E496E036AA5
:1006E0004650F2CF4DF0F29ED6DC4DBEF28E0108A0
:1006F00001E04988036A4650700FE96E0F0E03202F
:10070000EA6E49C0EFFF462A37D7D4EF03F0040161
:100710001151000A00010DE0010A14E0020A1FE075
:10072000060A29E0030A2EE00E0A2EE0010A32E052
:1007300040D019C050F40401516B020E486E000104
:1007400010DE38D00401122D07D0010E1916486AA8
:10075000000107DE03D00401000106DE2BD00401F6
:10076000122D06D01982486A0001FBDD03D0040176
:100770000001FADD1FD0020E176E12C421F0486A84
:10078000F0DD18D059DE16D018C050F4010E486EB6
:10079000E8DD10D004011251010809E312C418F079
:1007A00012C445F00001DAD6486ADBDD040100011D
:1007B00001D0DADDE7EF04F018C045F00401115173
:1007C000000A000107E00A0A0DE0010A2DE00D0A07
:1007D0003DE03ED00401506B516B020E486E0001AB
:1007E000C0DD37D045521EE0010E455C036AF2CFF2
:1007F00046F0F29EC8DC46BEF28E016E0401145D26
:10080000D8A002D000010ED0036A1451260FE96E61
:10081000000E0320EA6EEFCF50F4010E486E000187
:10082000A0DD01D0A1DD15D045520EE0036A040120
:100830001451260FE96E000E0320EA6E12C4EFFF7A
:10084000486A00018EDD01D08FDD03D0F5DD01D0D7
:100850008BDDE7EF04F0469045BE4680459E46A0FE
:1008600011D04550080DF350486A476E040E4726D4
:10087000000E482247C0E9FF040E4824EA6E880EA5
:10088000EF6E09D04550080DF350486AE96E040E2A
:100890004824EA6EEF6AADEF04F0469045BE46800C
:1008A000459E46A011D04550080DF350486A476E4A
:1008B000040E4726000E482247C0E9FF040E4824D4
:1008C000EA6E840EEF6E0AD04550080DF350486A68
:1008D000E96E040E4824EA6E840EEF6EB3EF04F066
:1008E000469045BE4680459E46A011D04550080D15
:1008F000F350496A486E040E4826000E492248C04B
:10090000E9FF040E4924EA6EEFCF47F00AD04550C4
:10091000080DF350496AE96E040E4924EA6EEFCFE0
:1009200047F047AE02D047B402D0000E01D0010E0E
:10093000016EBDEF04F014C44FF086DC015228E0D4
:1009400004011151010A000105E0020A09E0030A4D
:100950000DE01DD014C445F07ED7486A02DD18D0E2
:1009600014C445F09AD7486AFCDC12D00401506BDD
:10097000516B14C445F00001B3D7015204E0010EDD
:100980000401506F0001020E486EEBDC01D0ECDC7C
:10099000E7EF04F0040111510001E6DCE7EF04F099
:1009A000176A040110517F0B000A000107E0010AD9
:1009B00007E0030A07E0230A07E008D0A8D607D01B
:1009C000FBD605D0B8D703D0E5D701D0CDDC0FEFEB
:1009D00006F04550080DF3504B6AE96E040E4B24A7
:1009E000EA6EEFCF47F04650020806E147AC02D06E
:1009F000466A02D0010E466E4650030813E1840E8B
:100A0000476E4550080DF3504B6A4A6E040E4A2655
:100A1000000E4B224AC0E9FF040E4B24EA6E840EFE
:100A2000EF6E07D0462C03D0C80E476E02D0880E5A
:100A3000476ED8904534036AF2CF4AF0F29E5BECE1
:100A400000F00900F5CF03F04ABEF28E486E03C0F5
:100A500049F04550080DF3504B6A4A6E010E4A2486
:100A6000016E000E4B20036E01C0E9FF040E03244B
:100A7000EA6E48C0EFFF49A001D0478049A201D0EB
:100A800047824550080DF3504B6AE96E040E4B2423
:100A9000EA6E47C0EFFF1200036A4A50700FE96E1A
:100AA0000F0E0320EA6EEF5212E04A50080DF35089
:100AB0004C6A4B6E040E4B26000E4C224BC0E9FFD5
:100AC000040E4C24EA6EEFCF4DF04DAE02D0000E76
:100AD00001D0010E016E120045C04AF0DDDF015267
:100AE00063E04550080DF3504B6A4A6E040E4A26E7
:100AF000000E4B22010E4A24016E000E4B20036EA5
:100B000001C0E9FF040E0324EA6E46C0EFFF48501F
:100B1000020817E14550080DF3504B6A4A6E040E67
:100B20004A26000E4B224AC0E9FF040E4B24EA6E0F
:100B3000EFCF49F049AC02D0486A02D0010E486EAE
:100B400013D04850040810E14550080DF3504B6A8B
:100B5000E96E040E4B24EA6EEFCF49F049AC03D0A6
:100B6000010E486E01D0486A482C03D0C80E496E69
:100B700002D0880E496E47A001D0498047A201D01B
:100B800049824550080DF3504B6A4A6E040E4A26BE
:100B9000000E4B224AC0E9FF040E4B24EA6E49C006
:100BA000EFFF010E016E02D0000E016E12004552E1
:100BB00000E1120046C06EFF465203E0040E1F6EB5
:100BC00002D0020E1F6EEAEF05F0186A176A21C004
:100BD00046F0F0D7F7EF05F0455209E1172C03D0A6
:100BE000B6EC01F004D017500208D8B4EED71200CA
:100BF0001E30436E433243321F0E43161E5241E1F4
:100C0000040100513C0B446E430E0017445034085D
:100C10001EE10451800B01E0046B0001C1D66D9808
:100C2000203C05D0456A030E466ED3DE0ED0456AE1
:100C3000020E466ECEDE2050FE0807E0456A476A87
:100C400020C046F0040E486E47DF18D0040144501F
:100C5000040815E1456A0001AADF456A020E466EE6
:100C6000B8DE2050FE080AE0203C01D007D0456ADB
:100C7000476A20C046F0010E486E2EDF04011CD0EA
:100C800000011E5004080EE12068456AA5DF203CE3
:100C900001D007D0456A476A20C046F0020E486E70
:100CA0001BDF09D01EB404D043C045F080DF03D061
:100CB00043C045F091DF0401000190EF06F0A19AD6
:100CC0001F52D8B433D06852D8B430D068A403D0FF
:100CD00069B401EF01F06DB229D068AA03D069BAF6
:100CE00019EF01F068A203D069B220EF01F068A00B
:100CF00003D069B094EF01F068A803D069B8A9EFF8
:100D000001F068AC03D069BCAEEF01F0426A68A69E
:100D100008D069A606D06CCF1EF002EC00F068D7B0
:100D200001D004D04250422A0308F1E22AEF00F039
:100D3000EA6A320EE96EEF500EE0010E016E006AB3
:100D4000002EFED7012EFBD74A0E006E002EFED7D6
:100D500000D0EF2EF2D712006D6A696A080E6F6E2E
:100D600094503009946E1F6A166AF2BE168EF29E77
:100D700080EC01F016BEF28EBFEF06F0EDD7E4EF87
:100D800006F0166AF2BE168EF29E80EC01F016BED8
:100D9000F28E6D6A140E6F6E696A6D86010E1F6E9B
:100DA000D5EF06F06DB601D0ECD71F2C0BD06DBA85
:100DB00009D0686A696AA08AC00EF212110E696EC3
:100DC000020E1F6E1200DAD7EDDF1F500208FCE1A1
:100DD00016EF08F0185202E10400FCD718EF08F0F3
:100DE0001850016E1200036A3150700FE96E0F0E39
:100DF0000320EA6EEF520DE03150080DF350336AD4
:100E0000326EE96E040E3324EA6EEFCF34F034AE66
:100E100002D0000E01D0010E016E3BEF08F03650FB
:100E2000080DF350416A406E020E4024016E000E20
:100E30004120036E01C0E9FF040E0324EA6EECCFEB
:100E40003CF0ED52EFCF3BF03650080DF350416AC5
:100E5000406E010E4024016E000E4120036E01C061
:100E6000E9FF040E0324EA6E3F6AEFCF3EF03650EE
:100E7000080DF350416AE96E040E4124EA6EEFCF8B
:100E80003DF03DA001D03F803DA201D03F823F50C8
:100E90003A5C08E303E139503E5C04E23FC03AF0BB
:100EA0003EC039F038C0EAFF37C0E9FF3CC0E2FF7E
:100EB0003BC0E1FF3AC002F039C001F0015202E04C
:100EC000022A02D0025206E0E6CFEEFF012EFCD746
:100ED000022EFAD739C001F03AC002F07BEF07F0DA
:100EE00031C036F033C038F032C037F035C03AF098
:100EF00034C039F094D702C035F001C034F0166A1E
:100F0000F2BE168EF29E31C045F0020E466E61DDD5
:100F100016BEF28E34C001F035C002F046EF08F084
:100F2000166AF2BE168EF29E31C04AF0B5DD16BECC
:100F3000F28E015242E03150080DF3503A6A396E98
:100F4000040E3926000E3A22020E3924016E000EDC
:100F50003A20036E01C0E9FF040E0324EA6EECCFD1
:100F600038F0ED52EFCF37F038C0EAFF37C0E9FF75
:100F700033C0E2FF32C0E1FF35C002F034C001F0FF
:100F8000015202E0022A02D0025206E0E6CFEEFF52
:100F9000012EFCD7022EFAD7166AF2BE168EF29EEA
:100FA00031C045F035C047F034C046F036C048F097
:100FB00093DD16BEF28E015002D0000E016E65EF79
:100FC00008F0F86AD09E078E2D80C150C00B0F0923
:100FD000C16E070EB46E1B6A040E1C6E0C0E1D6EE5
:100FE000C150C00B0E09C16EC050C00B0709C06EC6
:100FF000C08EC280D56ACD6A000ECA6E000ECB6E5E
:10100000B16A070EB46E9250926E020E006E002E00
:10101000FED700D00000B450A19CB56A020E316E1C
:10102000FA0E326E85DE312EFBD7CDD6BBDED2D6A0
:10103000C00EF21293908A8093928A822E6A2E506A
:1010400002080CE393908A90640E326E71DE9390E6
:101050008A80640E326E6CDE2E2AF1D7C1DE015218
:1010600002E10000FBD793908A90BADE01522DE096
:10107000010E316EB8D6015228E0010E316E336A8E
:10108000270E326E356A030E346E2AD727521DE1C1
:1010900093928A72C282C2B2FED7C3CF2FF0C4CF5E
:1010A00030F03050030B2A6E2FC02BF0000E2DB005
:1010B000010E2C6E010E316E336A2A0E326E356AC5
:1010C000030E346E020E366E2BD783B40CD0050E91
:1010D000326E2EDE83B402D00000FCD72DA002D0E9
:0A10E0002D9001D02D80C1D7030030
:020000040030CA
:0E00000020C03E0E0007A1000FC00FE00F4011
:00000001FF
;PIC18F4550
;CRC=604F  CREATED="09-jul-17 14:03"
